:020000040000FA
:040000000000DC29F7
:040004000034003490
:0800080000008B1C0828A92848
:10001000831203138B1383120313BB0B4E280000B0
:100020002E1823282E1959281528B40A3408CB3C39
:10003000031958283408C53C0319D12034086C2210
:100040001E30BB004E28AE184E2826288030B40043
:100050006C224B305C2245305C2245305C225030B3
:100060005C223F305C2220305C225B305C223130ED
:100070005C223A305C2259305C222C305C223230D7
:100080005C223A305C224E305C225D305C222030B3
:100090005C228E30B4006C22AE144E2883120313FF
:1000A0008101831203130B118B17831203130900B1
:1000B000F120AE012E140C306C222F082B3C0319BA
:1000C0006A282F082F3C03196F282F08253C031995
:1000D00074284E28031003114323FE2279280310AD
:1000E00003115D23FE227928031003117523FE22DC
:1000F00079288030B4006C2201306C2252305C22AE
:1001000045305C2253305C2255305C224C305C22FE
:1001100054305C22C0306C223D305C2235080F39EF
:10012000303E5C22B60E36080F39303E5C22B60EE9
:1001300036080F39303E5C22B70E37080F39303E93
:100140005C22B70E37080F39303E5C222830BB00E6
:100150004E281E22831203138B100B122E18B9285F
:100160002E1911290E306C223408C53C03191129AF
:100170002F29FF3024227D302422831203130618F6
:10018000C228CA28AE012E151E222B30AF00013026
:100190006C227C2AAE01BC22BE01BF012B30AF0015
:1001A000C5292908C0002A08C1002B08C2002C0854
:1001B000C3002D08C4003030A9023030AA0230300C
:1001C000AB023030AC023030AD0221233E08A1003A
:1001D0003F08A0003030A900AA00AB00AC00AD0081
:1001E00008002908C5002A08C6002B08C7002C08EB
:1001F000C8002D08C9003030A9023030AA023030C2
:10020000AB023030AC023030AD0221233E08A300F7
:100210003F08A2003030A900AA00AB00AC00AD003E
:1002200008002F082B3C03191D292F082F3C031908
:1002300029292F08253C031923292F30AF005C22E0
:1002400034086C22C5292B30AF005C2234086C22A4
:10025000C5292530AF005C2234086C22C52934083A
:10026000C53C031C47293408C03C03195B293408EA
:10027000C13C031965293408C23C03197D2934089F
:10028000C33C031995293408C43C0319AD2934082B
:10029000C63C03195B293408C73C03196529340897
:1002A000C83C03197D293408C93C03199529340831
:1002B000CA3C0319AD29A90A2908373C0319CD21E5
:1002C00029085C2234086C22C5292908363C031908
:1002D0007329AA0A2A083A3C0319D0212A085C2269
:1002E00034086C22C529AA0A2A08363C0319D021F1
:1002F0002A085C2234086C22C5292A08353C0319D7
:10030000912BAB0A2B083A3C0319D3212B085C2212
:1003100034086C22C529AB0A2B08363C0319D321BB
:100320002B085C2234086C22C5292B08353C0319A4
:10033000962BAC0A2C083A3C0319D6212C085C22D7
:1003400034086C22C529AC0A2C08343C0319D62188
:100350002C085C2234086C22C5292C08333C031974
:10036000A02BAD0A2D083A3C0319D9212D085C2297
:1003700034086C22C529AD0A2D08363C0319D92151
:100380002D085C2234086C22C529831203138B10BC
:100390000C100B168312031309003030A90008005B
:1003A0003030AA0008003030AB0008003030AC001C
:1003B00008003030AD000800C001C101C201C30116
:1003C000C401C501C601C701C801C901A601A70131
:1003D000A001A201A101A301A401A501AE01303039
:1003E000A900AA00AB00AC00AD002B30AF00C030BC
:1003F000B4001E30BB0000220D222F22BC22AF2BE6
:10040000831203138B170B168B16831603130730F7
:1004100081000B1183120313080083160313850157
:100420008312031385018316031306309F0083167E
:1004300003138601061483120313080083120313A7
:100440001E30BB000B150800F1002922F10B252AF4
:100450000800F930F0000000F00B2B2A080064308F
:100460002422033085004F222922292229222922F1
:1004700029224F2229224F2205104F2202308500C7
:100480004F2229220830850185004F22292285012B
:100490004F2229220C3085004F2229220800851680
:1004A00029222922292229222922851229222922A8
:1004B0002922292229220800A800A80E28080F397D
:1004C000850005164F222922A80E28080F3985001D
:1004D00005164F2229220800A800A80E28080F3967
:1004E000850005124F222922A80E28080F39850001
:1004F00005124F222922080080306C2250305C22E5
:1005000049305C2243305C224B305C2220305C223C
:100510004F305C2250305C2245305C2252305C22ED
:1005200041305C2254305C2249305C224F305C22E6
:100530004E305C223A305C22C030B4006C2240085D
:100540005C2241085C2242085C2243085C22440889
:100550005C222B305C2245085C2246085C2247085E
:100560005C2248085C2249085C220E306C22C530AF
:10057000B4006C221E22C52901306C2280306C220E
:1005800045305C224E305C2254305C2245305C2287
:1005900052305C2220305C224F305C2250305C2292
:1005A00045305C2252305C2241305C2254305C2267
:1005B00049305C224F305C224E305C223A305C2263
:1005C000C030B4006C2230305C2230305C223030DD
:1005D0005C2230305C2230305C222B305C223030A8
:1005E0005C2230305C2230305C2230305C22303093
:1005F0005C2234086C220E306C2208001030B800E7
:10060000B501B601B7010310A60DA70DB70DB60DC4
:10061000B50DB803031908003730840016233630AF
:1006200084001623353084001623042B0330000782
:10063000BC00BC19800030300007BC00BC1B80002F
:1006400008002C082A07BF00BF0D2B0E2B07BF0781
:10065000290D2A07BE00BF0DBE0D2A0EBF02031CC6
:10066000BE032B0E2C07BF070318BE0A290E2D0749
:10067000BF0DBE0DBF070318BE0A2908BE02290E12
:10068000BE07BE070800A601A701CB01200822076C
:100690000318A70AA60021082307A7070318CB0AF7
:1006A0000800220924070318A50A013E0318A50A19
:1006B000A40023092507A5000800A701A601CB0176
:1006C0002008A4002108A50022080319682B6B2B21
:1006D00023080319722B5123031C722BA60A03193A
:1006E000A70A6B2B0319CB0A0800A701A601200853
:1006F000A4002108A500220803197F2B822B2308C0
:100700000319862B5123031C862B822B0319CB0A3A
:10071000220824070318A70AA60023082507A7070D
:1007200008002908363C03198B2981292A08353C01
:1007300003199B2B99292908363C0319A3299929C8
:100740002B08353C0319A52BB1292A08353C031980
:10075000AA2BB1292908363C0319BB29B129AF2B93
:02400E00313748
:00000001FF
