:020000040000FA
:040000000000F029E3
:040004000034003490
:0800080000008B1C0828BD2834
:10001000831203138B1383120313BB0B4E280000B0
:100020002E1823282E1959281528B40A3408CB3C39
:10003000031958283408C53C0319E52034088122E7
:100040001E30BB004E28AE184E2826288030B40043
:1000500081224B307122453071224530712250305F
:1000600071223F307122203071225B307122313099
:1000700071223A307122593071222C307122323083
:1000800071223A3071224E3071225D30712220305F
:1000900071228E30B4008122AE144E2883120313D5
:1000A0008101831203130B118B17831203130900B1
:1000B0000521AE012E140C3081222F082B3C031990
:1000C0006A282F082F3C03196F282F08253C031995
:1000D00074284E280310031162231D23792803106E
:1000E00003117E231D2379280310031194231D235C
:1000F0007928B50E35080F39303ED000B50E3508D9
:100100000F39303ED100B60E36080F39303ED200DE
:10011000B60E36080F39303ED300B70E37080F3908
:10012000303ED400B70E37080F39303ED5004B189B
:10013000CC238030B40081220130812252307122E0
:100140004530712253307122553071224C3071226A
:1001500054307122C03081223D307122500871220A
:1001600051087122520871225308712254087122D9
:10017000550871222830BB004E2833228312031306
:100180008B100B122E18CD282E1925290E30812206
:100190003408C53C031925294329FF3039229630FC
:1001A0003922831203130618D628DE28AE012E1535
:1001B00033222B30AF0001308122912AAE01D122AF
:1001C000BE01BF012B30AF00D9292908C0002A0881
:1001D000C1002B08C2002C08C3002D08C400303019
:1001E000A9023030AA023030AB023030AC023030DD
:1001F000AD0240233E08A1003F08A0003030A90016
:10020000AA00AB00AC00AD0008002908C5002A0810
:10021000C6002B08C7002C08C8002D08C9003030C4
:10022000A9023030AA023030AB023030AC0230309C
:10023000AD0240233E08A3003F08A2003030A900D1
:10024000AA00AB00AC00AD0008002F082B3C03193E
:1002500031292F082F3C03193D292F08253C03196C
:1002600037292F30AF00712234088122D9292B3051
:10027000AF00712234088122D9292530AF007122C4
:1002800034088122D9293408C53C031C5B29340871
:10029000C03C03196F293408C13C0319792934087B
:1002A000C23C031991293408C33C0319A929340815
:1002B000C43C0319C1293408C63C03196F2934080A
:1002C000C73C031979293408C83C0319912934081B
:1002D000C93C0319A9293408CA3C0319C129A90A30
:1002E0002908373C0319E1212908712234088122A9
:1002F000D9292908363C03198729AA0A2A083A3C31
:100300000319E4212A08712234088122D929AA0A72
:100310002A08363C0319E4212A0871223408812274
:10032000D9292A08353C0319AE2BAB0A2B083A3CD5
:100330000319E7212B08712234088122D929AB0A3D
:100340002B08363C0319E7212B087122340881223F
:10035000D9292B08353C0319B32BAC0A2C083A3C9D
:100360000319EA212C08712234088122D929AC0A08
:100370002C08343C0319EA212C087122340881220C
:10038000D9292C08333C0319BD2BAD0A2D083A3C62
:100390000319ED212D08712234088122D929AD0AD3
:1003A0002D08363C0319ED212D08712234088122D5
:1003B000D929831203138B100C100B16831203130D
:1003C00009003030A90008003030AA0008003030A1
:1003D000AB0008003030AC0008003030AD00080041
:1003E000C001C101C201C301C401C501C601C701E9
:1003F000C801C901A601A701A001A201A101A30191
:10040000A401A501AE013030A900AA00AB00AC00E8
:10041000AD002B30AF00C030B4001E30BB00142242
:1004200021224422D122FA2B831203138B170B169D
:100430008B1683160313073081000B1183120313ED
:1004400008008316031385018312031385018316A5
:10045000031306309F0083160313860186010614DA
:10046000831203130800831203131E30BB000B1505
:100470000800F1003E22F10B3A2A0800F930F000A2
:100480000000F00B402A0800643039220330850058
:1004900064223E223E223E223E223E2264223E2210
:1004A0006422051064220230850064223E22083056
:1004B0008501850064223E22850164223E220C30A3
:1004C000850064223E22080085163E223E223E22FE
:1004D0003E223E2285123E223E223E223E223E22E5
:1004E0000800A800A80E28080F3985000516642208
:1004F0003E22A80E28080F398500051664223E22E8
:100500000800A800A80E28080F39850005126422EB
:100510003E22A80E28080F398500051264223E22CB
:1005200008008030812250307122493071224330DE
:1005300071224B307122203071224F3071225030A5
:100540007122453071225230712241307122543073
:100550007122493071224F3071224E3071223A306F
:100560007122C030B40081224008712241087122FA
:100570004208712243087122440871222B307122F3
:1005800045087122460871224708712248087122E5
:10059000490871220E308122C530B40081223322F5
:1005A000D929831203138B13831203130130812281
:1005B00080308122453071224E30712254307122B8
:1005C0004530712252307122203071224F30712219
:1005D00050307122453071225230712241307122E7
:1005E00054307122493071224F3071224E307122C5
:1005F0003A307122C030B400812230307122303064
:1006000071223030712230307122303071222B3023
:10061000712230307122303071223030712230300E
:10062000712230307122340881220E3081228312EF
:1006300003138B178312031308001030B800B501A1
:10064000B601B7010310A60DA70DB70DB60DB50D78
:10065000B80303190800373084003523363084008E
:100660003523353084003523232B03300007BC00AD
:10067000BC19800030300007BC00BC1B80000800A3
:100680002C082A07BF00BF0D2B0E2B07BF07290D13
:100690002A07BE00BF0DBE0D2A0EBF02031CBE03FB
:1006A0002B0E2C07BF070318BE0A290E2D07BF0DFE
:1006B000BE0DBF070318BE0A2908BE02290EBE07D9
:1006C000BE070800A601A701CB01200822070318D6
:1006D000A70AA6002108230703184B14A70703182D
:1006E0004B140800220924070318A50A013E031829
:1006F000A50AA40023092507A5000800A701A60153
:10070000CB012008A4002108A50022080319892B89
:100710008C2B23080319932B7223031C932BA60AFB
:100720000319A70A8C2B0800A701A6012008A40022
:100730002108A500220803199E2BA12B23080319C9
:10074000A52B7223031CA52BA12B22082407031819
:10075000A70AA60023082507A70708002908363C92
:1007600003199F2995292A08353C0319B82BAD296F
:100770002908363C0319B729AD292B08353C031944
:10078000C22BC5292A08353C0319C72BC5292908BE
:10079000363C0319CF29C52906305507D500393C09
:1007A0000318D52B0A30D502D40A03305407D400DD
:1007B000393C0318DE2B0A30D402D30A0530530724
:1007C000D300393C0318E72B0A30D302D20A053094
:1007D0005207D200393C0318F02B0A30D202D10A5A
:1007E00006305107D100393C0318F92B0A30D102E9
:0607F000D00A0800FA2BFC
:02400E00313748
:00000001FF
