:020000040000FA
:040000000000E229F1
:040004000034003490
:0800080000008B1C0828AF2842
:10001000831203138B1383120313BB0B4E280000B0
:100020002E1823282E1959281528B40A3408CB3C39
:10003000031958283408C53C0319D7203408722204
:100040001E30BB004E28AE184E2826288030B40043
:1000500072224B306222453062224530622250309B
:1000600062223F306222203062225B3062223130D5
:1000700062223A306222593062222C3062223230BF
:1000800062223A3062224E3062225D30622220309B
:1000900062228E30B4007222AE144E2883120313F3
:1000A0008101831203130B118B17831203130900B1
:1000B000F720AE012E140C3072222F082B3C0319AE
:1000C0006A282F082F3C03196F282F08253C031995
:1000D00074284E28031003113923F42279280310C1
:1000E00003115023F4227928031003115E23F42214
:1000F00079288030B400722201307222523062229C
:100100004530622253306222553062224C306222E6
:1001100054306222C03072223D306222B50E350862
:100120000F39303E6222B50E35080F39303E62225B
:10013000B60E36080F39303E6222B60E36080F3939
:10014000303E6222B70E37080F39303E6222B70EBA
:1001500037080F39303E62222830BB004E28242257
:10016000831203138B100B122E18BF282E19172978
:100170000E3072223408C53C031917293529FF3087
:100180002A227D302A22831203130618C828D02879
:10019000AE012E1524222B30AF0001307222822AAC
:1001A000AE01B222BE01BF012B30AF00CB2929081E
:1001B000C0002A08C1002B08C2002C08C3002D086B
:1001C000C4003030A9023030AA023030AB023030E7
:1001D000AC023030AD0217233E08A1003F08A0005A
:1001E0003030A900AA00AB00AC00AD00080029081F
:1001F000C5002A08C6002B08C7002C08C8002D0817
:10020000C9003030A9023030AA023030AB023030A1
:10021000AC023030AD0217233E08A3003F08A20015
:100220003030A900AA00AB00AC00AD0008002F08D8
:100230002B3C031923292F082F3C03192F292F08A2
:10024000253C031929292F30AF006222340872227D
:10025000CB292B30AF00622234087222CB29253003
:10026000AF00622234087222CB293408C53C031C3B
:100270004D293408C03C031961293408C13C0319D5
:100280006B293408C23C031983293408C33C031981
:100290009B293408C43C0319B3293408C63C03190C
:1002A00061293408C73C03196B293408C83C031979
:1002B00083293408C93C03199B293408CA3C031913
:1002C000B329A90A2908373C0319D3212908622236
:1002D00034087222CB292908363C03197929AA0A45
:1002E0002A083A3C0319D6212A08622234087222CD
:1002F000CB29AA0A2A08363C0319D6212A086222E9
:1003000034087222CB292A08353C0319712BAB0A19
:100310002B083A3C0319D9212B0862223408722297
:10032000CB29AB0A2B08363C0319D9212B086222B2
:1003300034087222CB292B08353C0319762BAC0AE2
:100340002C083A3C0319DC212C0862223408722262
:10035000CB29AC0A2C08343C0319DC212C0862227E
:1003600034087222CB292C08333C0319802BAD0AA8
:100370002D083A3C0319DF212D086222340872222D
:10038000CB29AD0A2D08363C0319DF212D08622246
:1003900034087222CB29831203138B100C100B1616
:1003A0008312031309003030A90008003030AA007E
:1003B00008003030AB0008003030AC0008003030AE
:1003C000AD000800C001C101C201C301C401C501E3
:1003D000C601C701C801C901A601A701A001A20168
:1003E000A101A301A401A501AE013030A900AA001A
:1003F000AB00AC00AD002B30AF00C030B4001E30FD
:10040000BB00062213223522B2228F2B8312031344
:100410008B170B168B1683160313073081000B11F5
:100420008312031308008316031385018312031339
:1004300085018316031306309F008316031386017C
:100440000614831203130800831203131E30BB002B
:100450000B150800F1002F22F10B2B2A0800F930B0
:10046000F0000000F00B312A080064302A2203302B
:10047000850055222F222F222F222F222F22552274
:100480002F225522051055220230850055222F2299
:1004900008308501850055222F22850155222F2203
:1004A0000C30850055222F22080085162F222F227E
:1004B0002F222F222F2285122F222F222F222F226E
:1004C0002F220800A800A80E28080F39850005165D
:1004D00055222F22A80E28080F398500051655220F
:1004E0002F220800A800A80E28080F398500051241
:1004F00055222F22A80E28080F39850005125522F3
:100500002F2208008030722250306222493062224D
:10051000433062224B306222203062224F3062220E
:1005200050306222C030B40072224008622241087A
:1005300062224208622243086222440862222B306F
:100540006222450862224608622247086222480861
:100550006222490862220E307222C530B400722233
:100560002422CB290130722280307222453062224F
:100570004E30622254306222453062225230622272
:10058000203062224F306222503062224530622297
:10059000523062224130622254306222493062225B
:1005A0004F3062224E3062223A306222C030B400B4
:1005B000722230306222303062223030622230309B
:1005C0006222303062222B306222303062223030A0
:1005D00062223030622230306222303062223408AF
:1005E00072220E30722208001030B800B501B60138
:1005F000B7010310A60DA70DB70DB60DB50DB803C5
:1006000003190800373084000C23363084000C2393
:10061000353084000C23FA2A03300007BC00BC19D3
:10062000800030300007BC00BC1B800008002C0894
:100630002A07BF00BF0D2B0E2B07BF07290D2A0766
:10064000BE00BF0DBE0D2A0EBF02031CBE032B0E43
:100650002C07BF070318BE0A290E2D07BF0DBE0DBC
:10066000BF070318BE0A2908BE02290EBE07BE072F
:100670000800A601A701200822070318A70AA60060
:1006800021082307A7070800220924070318A50A41
:10069000013E0318A50AA40023092507A5000800A8
:1006A000A701A6012008A4002108A5004423031CDB
:1006B0005D2BA60A0319A70A562B0800A701A6015D
:1006C0002008A4002108A5004423031C682B642BE8
:1006D000220824070318A70AA60023082507A7074E
:1006E00008002908363C0319912987292A08353C36
:1006F00003197B2B9F292908363C0319A9299F2917
:100700002B08353C0319852BB7292A08353C0319DA
:100710008A2BB7292908363C0319C129B7298F2B01
:02400E00313748
:00000001FF
