:020000040000FA
:0400000000000F28C5
:040004000034003490
:080008000528831203138B107D
:100010000B12831203130B16831203130900C03053
:10002000A900C130B000C230B100C330B200C4304A
:10003000B3007020C920A001A101A201A301A40165
:10004000A501A80103014930A0000630A1000A3033
:10005000A2000030A3005220E628A601A701200834
:1000600022070318A70AA60021082307A7070800EC
:10007000220924070318A50A013E0318A50AA400B3
:1000800023092507A5000800A701A6012008A40050
:100090002108A5003820031C5128A60A0319A70A25
:1000A0004A280800A701A6012008A4002108A500ED
:1000B0003820031C5C285828220824070318A70AA4
:1000C000A60023082507A7070800F1006A20F10B06
:1000D00066280800F930F0000000F00B6C280800DA
:1000E0006430652083160313850183120313850191
:1000F0008316031306309F00831203130330850019
:100100009C206A206A206A206A206A209C206A203B
:100110009C2005109C20023085009C206A2008301D
:10012000850185009C206A2085019C206A200F3073
:1001300085009C206A20080085166A206A206A20B3
:100140006A206A2085126A206A206A206A206A2052
:100150000800A800A80E28080F39850005169C2065
:100160006A20A80E28080F39850005169C206A20F1
:100170000800A800A80E28080F39850005129C2049
:100180006A20A80E28080F39850005129C206A20D5
:1001900008004530A9204E30A9205430A920453010
:1001A000A9205230A9202030A9204E30A920553056
:1001B000A9204D30A9203130A9203A30A920C030E3
:0E01C000B9203030A9202908B92008006300BA
:02400E00313748
:00000001FF
